{
  "_format": "hh-sol-artifact-1",
  "contractName": "BadgeNFT",
  "sourceName": "contracts/BadgeNFT.sol",
  "abi": [
    {
      "inputs": [
        {
          "internalType": "address",
          "name": "_musd",
          "type": "address"
        }
      ],
      "stateMutability": "nonpayable",
      "type": "constructor"
    },
    {
      "inputs": [
        {
          "internalType": "address",
          "name": "sender",
          "type": "address"
        },
        {
          "internalType": "uint256",
          "name": "tokenId",
          "type": "uint256"
        },
        {
          "internalType": "address",
          "name": "owner",
          "type": "address"
        }
      ],
      "name": "ERC721IncorrectOwner",
      "type": "error"
    },
    {
      "inputs": [
        {
          "internalType": "address",
          "name": "operator",
          "type": "address"
        },
        {
          "internalType": "uint256",
          "name": "tokenId",
          "type": "uint256"
        }
      ],
      "name": "ERC721InsufficientApproval",
      "type": "error"
    },
    {
      "inputs": [
        {
          "internalType": "address",
          "name": "approver",
          "type": "address"
        }
      ],
      "name": "ERC721InvalidApprover",
      "type": "error"
    },
    {
      "inputs": [
        {
          "internalType": "address",
          "name": "operator",
          "type": "address"
        }
      ],
      "name": "ERC721InvalidOperator",
      "type": "error"
    },
    {
      "inputs": [
        {
          "internalType": "address",
          "name": "owner",
          "type": "address"
        }
      ],
      "name": "ERC721InvalidOwner",
      "type": "error"
    },
    {
      "inputs": [
        {
          "internalType": "address",
          "name": "receiver",
          "type": "address"
        }
      ],
      "name": "ERC721InvalidReceiver",
      "type": "error"
    },
    {
      "inputs": [
        {
          "internalType": "address",
          "name": "sender",
          "type": "address"
        }
      ],
      "name": "ERC721InvalidSender",
      "type": "error"
    },
    {
      "inputs": [
        {
          "internalType": "uint256",
          "name": "tokenId",
          "type": "uint256"
        }
      ],
      "name": "ERC721NonexistentToken",
      "type": "error"
    },
    {
      "anonymous": false,
      "inputs": [
        {
          "indexed": true,
          "internalType": "address",
          "name": "owner",
          "type": "address"
        },
        {
          "indexed": true,
          "internalType": "address",
          "name": "approved",
          "type": "address"
        },
        {
          "indexed": true,
          "internalType": "uint256",
          "name": "tokenId",
          "type": "uint256"
        }
      ],
      "name": "Approval",
      "type": "event"
    },
    {
      "anonymous": false,
      "inputs": [
        {
          "indexed": true,
          "internalType": "address",
          "name": "owner",
          "type": "address"
        },
        {
          "indexed": true,
          "internalType": "address",
          "name": "operator",
          "type": "address"
        },
        {
          "indexed": false,
          "internalType": "bool",
          "name": "approved",
          "type": "bool"
        }
      ],
      "name": "ApprovalForAll",
      "type": "event"
    },
    {
      "anonymous": false,
      "inputs": [
        {
          "indexed": true,
          "internalType": "address",
          "name": "to",
          "type": "address"
        },
        {
          "indexed": false,
          "internalType": "uint256",
          "name": "tokenId",
          "type": "uint256"
        }
      ],
      "name": "BadgeMinted",
      "type": "event"
    },
    {
      "anonymous": false,
      "inputs": [
        {
          "indexed": true,
          "internalType": "address",
          "name": "from",
          "type": "address"
        },
        {
          "indexed": true,
          "internalType": "address",
          "name": "to",
          "type": "address"
        },
        {
          "indexed": true,
          "internalType": "uint256",
          "name": "tokenId",
          "type": "uint256"
        }
      ],
      "name": "Transfer",
      "type": "event"
    },
    {
      "inputs": [],
      "name": "MINT_FEE",
      "outputs": [
        {
          "internalType": "uint256",
          "name": "",
          "type": "uint256"
        }
      ],
      "stateMutability": "view",
      "type": "function"
    },
    {
      "inputs": [
        {
          "internalType": "address",
          "name": "to",
          "type": "address"
        },
        {
          "internalType": "uint256",
          "name": "tokenId",
          "type": "uint256"
        }
      ],
      "name": "approve",
      "outputs": [],
      "stateMutability": "nonpayable",
      "type": "function"
    },
    {
      "inputs": [
        {
          "internalType": "address",
          "name": "owner",
          "type": "address"
        }
      ],
      "name": "balanceOf",
      "outputs": [
        {
          "internalType": "uint256",
          "name": "",
          "type": "uint256"
        }
      ],
      "stateMutability": "view",
      "type": "function"
    },
    {
      "inputs": [],
      "name": "claimBadge",
      "outputs": [
        {
          "internalType": "uint256",
          "name": "tokenId",
          "type": "uint256"
        }
      ],
      "stateMutability": "nonpayable",
      "type": "function"
    },
    {
      "inputs": [
        {
          "internalType": "uint256",
          "name": "tokenId",
          "type": "uint256"
        }
      ],
      "name": "getApproved",
      "outputs": [
        {
          "internalType": "address",
          "name": "",
          "type": "address"
        }
      ],
      "stateMutability": "view",
      "type": "function"
    },
    {
      "inputs": [
        {
          "internalType": "address",
          "name": "",
          "type": "address"
        }
      ],
      "name": "hasClaimed",
      "outputs": [
        {
          "internalType": "bool",
          "name": "",
          "type": "bool"
        }
      ],
      "stateMutability": "view",
      "type": "function"
    },
    {
      "inputs": [
        {
          "internalType": "address",
          "name": "owner",
          "type": "address"
        },
        {
          "internalType": "address",
          "name": "operator",
          "type": "address"
        }
      ],
      "name": "isApprovedForAll",
      "outputs": [
        {
          "internalType": "bool",
          "name": "",
          "type": "bool"
        }
      ],
      "stateMutability": "view",
      "type": "function"
    },
    {
      "inputs": [],
      "name": "musd",
      "outputs": [
        {
          "internalType": "contract IERC20",
          "name": "",
          "type": "address"
        }
      ],
      "stateMutability": "view",
      "type": "function"
    },
    {
      "inputs": [],
      "name": "name",
      "outputs": [
        {
          "internalType": "string",
          "name": "",
          "type": "string"
        }
      ],
      "stateMutability": "view",
      "type": "function"
    },
    {
      "inputs": [
        {
          "internalType": "uint256",
          "name": "tokenId",
          "type": "uint256"
        }
      ],
      "name": "ownerOf",
      "outputs": [
        {
          "internalType": "address",
          "name": "",
          "type": "address"
        }
      ],
      "stateMutability": "view",
      "type": "function"
    },
    {
      "inputs": [
        {
          "internalType": "address",
          "name": "from",
          "type": "address"
        },
        {
          "internalType": "address",
          "name": "to",
          "type": "address"
        },
        {
          "internalType": "uint256",
          "name": "tokenId",
          "type": "uint256"
        }
      ],
      "name": "safeTransferFrom",
      "outputs": [],
      "stateMutability": "nonpayable",
      "type": "function"
    },
    {
      "inputs": [
        {
          "internalType": "address",
          "name": "from",
          "type": "address"
        },
        {
          "internalType": "address",
          "name": "to",
          "type": "address"
        },
        {
          "internalType": "uint256",
          "name": "tokenId",
          "type": "uint256"
        },
        {
          "internalType": "bytes",
          "name": "data",
          "type": "bytes"
        }
      ],
      "name": "safeTransferFrom",
      "outputs": [],
      "stateMutability": "nonpayable",
      "type": "function"
    },
    {
      "inputs": [
        {
          "internalType": "address",
          "name": "operator",
          "type": "address"
        },
        {
          "internalType": "bool",
          "name": "approved",
          "type": "bool"
        }
      ],
      "name": "setApprovalForAll",
      "outputs": [],
      "stateMutability": "nonpayable",
      "type": "function"
    },
    {
      "inputs": [
        {
          "internalType": "bytes4",
          "name": "interfaceId",
          "type": "bytes4"
        }
      ],
      "name": "supportsInterface",
      "outputs": [
        {
          "internalType": "bool",
          "name": "",
          "type": "bool"
        }
      ],
      "stateMutability": "view",
      "type": "function"
    },
    {
      "inputs": [],
      "name": "symbol",
      "outputs": [
        {
          "internalType": "string",
          "name": "",
          "type": "string"
        }
      ],
      "stateMutability": "view",
      "type": "function"
    },
    {
      "inputs": [
        {
          "internalType": "uint256",
          "name": "tokenId",
          "type": "uint256"
        }
      ],
      "name": "tokenURI",
      "outputs": [
        {
          "internalType": "string",
          "name": "",
          "type": "string"
        }
      ],
      "stateMutability": "view",
      "type": "function"
    },
    {
      "inputs": [],
      "name": "totalSupply",
      "outputs": [
        {
          "internalType": "uint256",
          "name": "",
          "type": "uint256"
        }
      ],
      "stateMutability": "view",
      "type": "function"
    },
    {
      "inputs": [
        {
          "internalType": "address",
          "name": "from",
          "type": "address"
        },
        {
          "internalType": "address",
          "name": "to",
          "type": "address"
        },
        {
          "internalType": "uint256",
          "name": "tokenId",
          "type": "uint256"
        }
      ],
      "name": "transferFrom",
      "outputs": [],
      "stateMutability": "nonpayable",
      "type": "function"
    }
  ],
  "bytecode": "0x60a060405234801562000010575f80fd5b5060405162001a6538038062001a658339810160408190526200003391620000ba565b6040518060400160405280601781526020017f4861636b6174686f6e20323032352046696e6973686572000000000000000000815250604051806040016040528060048152602001634846323560e01b815250815f908162000096919062000187565b506001620000a5828262000187565b5050506001600160a01b031660805262000253565b5f60208284031215620000cb575f80fd5b81516001600160a01b0381168114620000e2575f80fd5b9392505050565b634e487b7160e01b5f52604160045260245ffd5b600181811c908216806200011257607f821691505b6020821081036200013157634e487b7160e01b5f52602260045260245ffd5b50919050565b601f8211156200018257805f5260205f20601f840160051c810160208510156200015e5750805b601f840160051c820191505b818110156200017f575f81556001016200016a565b50505b505050565b81516001600160401b03811115620001a357620001a3620000e9565b620001bb81620001b48454620000fd565b8462000137565b602080601f831160018114620001f1575f8415620001d95750858301515b5f19600386901b1c1916600185901b1785556200024b565b5f85815260208120601f198616915b82811015620002215788860151825594840194600190910190840162000200565b50858210156200023f57878501515f19600388901b60f8161c191681555b505060018460011b0185555b505050505050565b6080516117e4620002815f395f8181610260015281816104e1015281816105c801526106b701526117e45ff3fe608060405234801561000f575f80fd5b5060043610610111575f3560e01c806370a082311161009e578063b88d4fde1161006e578063b88d4fde14610235578063c87b56dd14610248578063cab666d01461025b578063d7bf81a314610282578063e985e9c51461028c575f80fd5b806370a08231146101e557806373b2e80e146101f857806395d89b411461021a578063a22cb46514610222575f80fd5b806318160ddd116100e457806318160ddd1461019257806323b872dd146101a457806342842e0e146101b757806356e56942146101ca5780636352211e146101d2575f80fd5b806301ffc9a71461011557806306fdde031461013d578063081812fc14610152578063095ea7b31461017d575b5f80fd5b610128610123366004611171565b61029f565b60405190151581526020015b60405180910390f35b6101456102f0565b60405161013491906111e0565b6101656101603660046111f2565b61037f565b6040516001600160a01b039091168152602001610134565b61019061018b366004611224565b6103a6565b005b6006545b604051908152602001610134565b6101906101b236600461124c565b6103b5565b6101906101c536600461124c565b610443565b610196610462565b6101656101e03660046111f2565b61079b565b6101966101f3366004611285565b6107a5565b610128610206366004611285565b60076020525f908152604090205460ff1681565b6101456107ea565b6101906102303660046112ab565b6107f9565b6101906102433660046112f4565b610804565b6101456102563660046111f2565b61081c565b6101657f000000000000000000000000000000000000000000000000000000000000000081565b6101966201388081565b61012861029a3660046113c9565b6108e7565b5f6001600160e01b031982166380ac58cd60e01b14806102cf57506001600160e01b03198216635b5e139f60e01b145b806102ea57506301ffc9a760e01b6001600160e01b03198316145b92915050565b60605f80546102fe906113fa565b80601f016020809104026020016040519081016040528092919081815260200182805461032a906113fa565b80156103755780601f1061034c57610100808354040283529160200191610375565b820191905f5260205f20905b81548152906001019060200180831161035857829003601f168201915b5050505050905090565b5f61038982610914565b505f828152600460205260409020546001600160a01b03166102ea565b6103b182823361094c565b5050565b6001600160a01b0382166103e357604051633250574960e11b81525f60048201526024015b60405180910390fd5b5f6103ef838333610959565b9050836001600160a01b0316816001600160a01b03161461043d576040516364283d7b60e01b81526001600160a01b03808616600483015260248201849052821660448201526064016103da565b50505050565b61045d83838360405180602001604052805f815250610804565b505050565b335f9081526007602052604081205460ff16156104c15760405162461bcd60e51b815260206004820152601960248201527f42616467654e46543a20616c726561647920636c61696d65640000000000000060448201526064016103da565b604051636eb1769f60e11b815233600482015230602482015262013880907f00000000000000000000000000000000000000000000000000000000000000006001600160a01b03169063dd62ed3e90604401602060405180830381865afa15801561052e573d5f803e3d5ffd5b505050506040513d601f19601f820116820180604052508101906105529190611432565b10156105ae5760405162461bcd60e51b815260206004820152602560248201527f42616467654e46543a20696e73756666696369656e74204d55534420616c6c6f60448201526477616e636560d81b60648201526084016103da565b6040516370a0823160e01b815233600482015262013880907f00000000000000000000000000000000000000000000000000000000000000006001600160a01b0316906370a0823190602401602060405180830381865afa158015610615573d5f803e3d5ffd5b505050506040513d601f19601f820116820180604052508101906106399190611432565b10156106935760405162461bcd60e51b815260206004820152602360248201527f42616467654e46543a20696e73756666696369656e74204d5553442062616c616044820152626e636560e81b60648201526084016103da565b6040516323b872dd60e01b81523360048201523060248201526201388060448201527f00000000000000000000000000000000000000000000000000000000000000006001600160a01b0316906323b872dd906064016020604051808303815f875af1158015610705573d5f803e3d5ffd5b505050506040513d601f19601f820116820180604052508101906107299190611449565b5060065f815461073890611478565b9182905550335f818152600760205260409020805460ff191660011790559091506107639082610a4b565b60405181815233907fc5e5b314108c1f776c2302351b8278910ddb812b122b2717b1bc973146145e9a9060200160405180910390a290565b5f6102ea82610914565b5f6001600160a01b0382166107cf576040516322718ad960e21b81525f60048201526024016103da565b506001600160a01b03165f9081526003602052604090205490565b6060600180546102fe906113fa565b6103b1338383610aac565b61080f8484846103b5565b61043d3385858585610b73565b5f818152600260205260409020546060906001600160a01b03166108825760405162461bcd60e51b815260206004820152601b60248201527f42616467654e46543a206e6f6e6578697374656e7420746f6b656e000000000060448201526064016103da565b5f61088c83610c9b565b61089584610c9b565b6040516020016108a69291906114ab565b60405160208183030381529060405290506108c081610d2b565b6040516020016108d091906116ca565b604051602081830303815290604052915050919050565b6001600160a01b039182165f90815260056020908152604080832093909416825291909152205460ff1690565b5f818152600260205260408120546001600160a01b0316806102ea57604051637e27328960e01b8152600481018490526024016103da565b61045d8383836001610d37565b5f828152600260205260408120546001600160a01b039081169083161561098557610985818486610e3b565b6001600160a01b038116156109bf576109a05f855f80610d37565b6001600160a01b0381165f90815260036020526040902080545f190190555b6001600160a01b038516156109ed576001600160a01b0385165f908152600360205260409020805460010190555b5f8481526002602052604080822080546001600160a01b0319166001600160a01b0389811691821790925591518793918516917fddf252ad1be2c89b69c2b068fc378daa952ba7f163c4a11628f55a4df523b3ef91a4949350505050565b6001600160a01b038216610a7457604051633250574960e11b81525f60048201526024016103da565b5f610a8083835f610959565b90506001600160a01b0381161561045d576040516339e3563760e11b81525f60048201526024016103da565b6001600160a01b038316610ad55760405163a9fbf51f60e01b81525f60048201526024016103da565b6001600160a01b038216610b0757604051630b61174360e31b81526001600160a01b03831660048201526024016103da565b6001600160a01b038381165f81815260056020908152604080832094871680845294825291829020805460ff191686151590811790915591519182527f17307eab39ab6107e8899845ad3d59bd9653f200f220920489ca2b5937696c31910160405180910390a3505050565b6001600160a01b0383163b15610c9457604051630a85bd0160e11b81526001600160a01b0384169063150b7a0290610bb590889088908790879060040161170e565b6020604051808303815f875af1925050508015610bef575060408051601f3d908101601f19168201909252610bec9181019061174a565b60015b610c56573d808015610c1c576040519150601f19603f3d011682016040523d82523d5f602084013e610c21565b606091505b5080515f03610c4e57604051633250574960e11b81526001600160a01b03851660048201526024016103da565b805160208201fd5b6001600160e01b03198116630a85bd0160e11b14610c9257604051633250574960e11b81526001600160a01b03851660048201526024016103da565b505b5050505050565b60605f610ca783610e9f565b60010190505f8167ffffffffffffffff811115610cc657610cc66112e0565b6040519080825280601f01601f191660200182016040528015610cf0576020820181803683370190505b5090508181016020015b5f19016f181899199a1a9b1b9c1cb0b131b232b360811b600a86061a8153600a8504945084610cfa57509392505050565b60606102ea825f610f76565b8080610d4b57506001600160a01b03821615155b15610e0c575f610d5a84610914565b90506001600160a01b03831615801590610d865750826001600160a01b0316816001600160a01b031614155b8015610d995750610d9781846108e7565b155b15610dc25760405163a9fbf51f60e01b81526001600160a01b03841660048201526024016103da565b8115610e0a5783856001600160a01b0316826001600160a01b03167f8c5be1e5ebec7d5bd14f71427d1e84f3dd0314c0f7b2291e5b200ac8c7c3b92560405160405180910390a45b505b50505f90815260046020526040902080546001600160a01b0319166001600160a01b0392909216919091179055565b610e468383836110f5565b61045d576001600160a01b038316610e7457604051637e27328960e01b8152600481018290526024016103da565b60405163177e802f60e01b81526001600160a01b0383166004820152602481018290526044016103da565b5f8072184f03e93ff9f4daa797ed6e38ed64bf6a1f0160401b8310610edd5772184f03e93ff9f4daa797ed6e38ed64bf6a1f0160401b830492506040015b6d04ee2d6d415b85acef81000000008310610f09576d04ee2d6d415b85acef8100000000830492506020015b662386f26fc100008310610f2757662386f26fc10000830492506010015b6305f5e1008310610f3f576305f5e100830492506008015b6127108310610f5357612710830492506004015b60648310610f65576064830492506002015b600a83106102ea5760010192915050565b606082515f03610f94575060408051602081019091525f81526102ea565b5f82610fc457600384516002610faa9190611765565b610fb49190611778565b610fbf906004611797565b610fe9565b600384516004610fd49190611797565b610fdf906002611765565b610fe99190611778565b905060405191507f4142434445464748494a4b4c4d4e4f505152535455565758595a616263646566601f5261067083027f6768696a6b6c6d6e6f707172737475767778797a303132333435363738392b2f18603f526020820181810185865187016020810180515f82525b828410156110a7576003840193508351603f8160121c16518753600187019650603f81600c1c16518753600187019650603f8160061c16518753600187019650603f811651875350600186019550611054565b9052508590506110e8576003865106600181146110cb57600281146110de576110e6565b603d6001840353603d60028403536110e6565b603d60018403535b505b9183525060405292915050565b5f6001600160a01b038316158015906111515750826001600160a01b0316846001600160a01b0316148061112e575061112e84846108e7565b8061115157505f828152600460205260409020546001600160a01b038481169116145b949350505050565b6001600160e01b03198116811461116e575f80fd5b50565b5f60208284031215611181575f80fd5b813561118c81611159565b9392505050565b5f5b838110156111ad578181015183820152602001611195565b50505f910152565b5f81518084526111cc816020860160208601611193565b601f01601f19169290920160200192915050565b602081525f61118c60208301846111b5565b5f60208284031215611202575f80fd5b5035919050565b80356001600160a01b038116811461121f575f80fd5b919050565b5f8060408385031215611235575f80fd5b61123e83611209565b946020939093013593505050565b5f805f6060848603121561125e575f80fd5b61126784611209565b925061127560208501611209565b9150604084013590509250925092565b5f60208284031215611295575f80fd5b61118c82611209565b801515811461116e575f80fd5b5f80604083850312156112bc575f80fd5b6112c583611209565b915060208301356112d58161129e565b809150509250929050565b634e487b7160e01b5f52604160045260245ffd5b5f805f8060808587031215611307575f80fd5b61131085611209565b935061131e60208601611209565b925060408501359150606085013567ffffffffffffffff80821115611341575f80fd5b818701915087601f830112611354575f80fd5b813581811115611366576113666112e0565b604051601f8201601f19908116603f0116810190838211818310171561138e5761138e6112e0565b816040528281528a60208487010111156113a6575f80fd5b826020860160208301375f60208483010152809550505050505092959194509250565b5f80604083850312156113da575f80fd5b6113e383611209565b91506113f160208401611209565b90509250929050565b600181811c9082168061140e57607f821691505b60208210810361142c57634e487b7160e01b5f52602260045260245ffd5b50919050565b5f60208284031215611442575f80fd5b5051919050565b5f60208284031215611459575f80fd5b815161118c8161129e565b634e487b7160e01b5f52601160045260245ffd5b5f6001820161148957611489611464565b5060010190565b5f81516114a1818560208601611193565b9290920192915050565b7f7b226e616d65223a224861636b6174686f6e20323032352046696e6973686572815261202360f01b60208201525f83516114ed816022850160208801611193565b61088b60f21b6022918401918201527f226465736372697074696f6e223a224d696e746564206761736c6573736c792060248201527f76696120556e6976657273616c20476173204672616d65776f726b206f6e204260448201526d185cd94814d95c1bdb1a584b888b60921b60648201527f22696d616765223a22697066733a2f2f516d5547464261646765506c6163656860728201527f6f6c646572486173685265706c616365576974685265616c222c00000000000060928201526d2261747472696275746573223a5b60901b60ac8201526116c16116b36116a561169f61166b61161c60ba87017f7b2274726169745f74797065223a2245646974696f6e222c2276616c7565223a81527108921858dad85d1a1bdb880c8c0c8d489f4b60721b602082015260320190565b7f7b2274726169745f74797065223a224d696e74656420566961222c2276616c7581527f65223a22556e6976657273616c20476173204672616d65776f726b227d2c00006020820152603e0190565b7f7b2274726169745f74797065223a22546f6b656e204944222c2276616c7565228152611d1160f11b602082015260220190565b87611490565b61227d60f01b815260020190565b615d7d60f01b815260020190565b95945050505050565b7f646174613a6170706c69636174696f6e2f6a736f6e3b6261736536342c00000081525f825161170181601d850160208701611193565b91909101601d0192915050565b6001600160a01b03858116825284166020820152604081018390526080606082018190525f90611740908301846111b5565b9695505050505050565b5f6020828403121561175a575f80fd5b815161118c81611159565b808201808211156102ea576102ea611464565b5f8261179257634e487b7160e01b5f52601260045260245ffd5b500490565b80820281158282048414176102ea576102ea61146456fea2646970667358221220e6f5728d9617674b0f99a512707fb48063ab2e26b9582dfd02822aabb2ed452164736f6c63430008180033",
  "linkReferences": {},
  "deployedLinkReferences": {}
}