{
  "_format": "hh-sol-artifact-1",
  "contractName": "BadgeNFT",
  "sourceName": "contracts/BadgeNFT.sol",
  "abi": [
    {
      "inputs": [
        {
          "internalType": "address",
          "name": "_musd",
          "type": "address"
        }
      ],
      "stateMutability": "nonpayable",
      "type": "constructor"
    },
    {
      "inputs": [
        {
          "internalType": "address",
          "name": "sender",
          "type": "address"
        },
        {
          "internalType": "uint256",
          "name": "tokenId",
          "type": "uint256"
        },
        {
          "internalType": "address",
          "name": "owner",
          "type": "address"
        }
      ],
      "name": "ERC721IncorrectOwner",
      "type": "error"
    },
    {
      "inputs": [
        {
          "internalType": "address",
          "name": "operator",
          "type": "address"
        },
        {
          "internalType": "uint256",
          "name": "tokenId",
          "type": "uint256"
        }
      ],
      "name": "ERC721InsufficientApproval",
      "type": "error"
    },
    {
      "inputs": [
        {
          "internalType": "address",
          "name": "approver",
          "type": "address"
        }
      ],
      "name": "ERC721InvalidApprover",
      "type": "error"
    },
    {
      "inputs": [
        {
          "internalType": "address",
          "name": "operator",
          "type": "address"
        }
      ],
      "name": "ERC721InvalidOperator",
      "type": "error"
    },
    {
      "inputs": [
        {
          "internalType": "address",
          "name": "owner",
          "type": "address"
        }
      ],
      "name": "ERC721InvalidOwner",
      "type": "error"
    },
    {
      "inputs": [
        {
          "internalType": "address",
          "name": "receiver",
          "type": "address"
        }
      ],
      "name": "ERC721InvalidReceiver",
      "type": "error"
    },
    {
      "inputs": [
        {
          "internalType": "address",
          "name": "sender",
          "type": "address"
        }
      ],
      "name": "ERC721InvalidSender",
      "type": "error"
    },
    {
      "inputs": [
        {
          "internalType": "uint256",
          "name": "tokenId",
          "type": "uint256"
        }
      ],
      "name": "ERC721NonexistentToken",
      "type": "error"
    },
    {
      "anonymous": false,
      "inputs": [
        {
          "indexed": true,
          "internalType": "address",
          "name": "owner",
          "type": "address"
        },
        {
          "indexed": true,
          "internalType": "address",
          "name": "approved",
          "type": "address"
        },
        {
          "indexed": true,
          "internalType": "uint256",
          "name": "tokenId",
          "type": "uint256"
        }
      ],
      "name": "Approval",
      "type": "event"
    },
    {
      "anonymous": false,
      "inputs": [
        {
          "indexed": true,
          "internalType": "address",
          "name": "owner",
          "type": "address"
        },
        {
          "indexed": true,
          "internalType": "address",
          "name": "operator",
          "type": "address"
        },
        {
          "indexed": false,
          "internalType": "bool",
          "name": "approved",
          "type": "bool"
        }
      ],
      "name": "ApprovalForAll",
      "type": "event"
    },
    {
      "anonymous": false,
      "inputs": [
        {
          "indexed": true,
          "internalType": "address",
          "name": "to",
          "type": "address"
        },
        {
          "indexed": false,
          "internalType": "uint256",
          "name": "tokenId",
          "type": "uint256"
        }
      ],
      "name": "BadgeMinted",
      "type": "event"
    },
    {
      "anonymous": false,
      "inputs": [
        {
          "indexed": true,
          "internalType": "address",
          "name": "from",
          "type": "address"
        },
        {
          "indexed": true,
          "internalType": "address",
          "name": "to",
          "type": "address"
        },
        {
          "indexed": true,
          "internalType": "uint256",
          "name": "tokenId",
          "type": "uint256"
        }
      ],
      "name": "Transfer",
      "type": "event"
    },
    {
      "inputs": [],
      "name": "MINT_FEE",
      "outputs": [
        {
          "internalType": "uint256",
          "name": "",
          "type": "uint256"
        }
      ],
      "stateMutability": "view",
      "type": "function"
    },
    {
      "inputs": [
        {
          "internalType": "address",
          "name": "to",
          "type": "address"
        },
        {
          "internalType": "uint256",
          "name": "tokenId",
          "type": "uint256"
        }
      ],
      "name": "approve",
      "outputs": [],
      "stateMutability": "nonpayable",
      "type": "function"
    },
    {
      "inputs": [
        {
          "internalType": "address",
          "name": "owner",
          "type": "address"
        }
      ],
      "name": "balanceOf",
      "outputs": [
        {
          "internalType": "uint256",
          "name": "",
          "type": "uint256"
        }
      ],
      "stateMutability": "view",
      "type": "function"
    },
    {
      "inputs": [],
      "name": "claimBadge",
      "outputs": [
        {
          "internalType": "uint256",
          "name": "tokenId",
          "type": "uint256"
        }
      ],
      "stateMutability": "nonpayable",
      "type": "function"
    },
    {
      "inputs": [
        {
          "internalType": "uint256",
          "name": "tokenId",
          "type": "uint256"
        }
      ],
      "name": "getApproved",
      "outputs": [
        {
          "internalType": "address",
          "name": "",
          "type": "address"
        }
      ],
      "stateMutability": "view",
      "type": "function"
    },
    {
      "inputs": [
        {
          "internalType": "address",
          "name": "",
          "type": "address"
        }
      ],
      "name": "hasClaimed",
      "outputs": [
        {
          "internalType": "bool",
          "name": "",
          "type": "bool"
        }
      ],
      "stateMutability": "view",
      "type": "function"
    },
    {
      "inputs": [
        {
          "internalType": "address",
          "name": "owner",
          "type": "address"
        },
        {
          "internalType": "address",
          "name": "operator",
          "type": "address"
        }
      ],
      "name": "isApprovedForAll",
      "outputs": [
        {
          "internalType": "bool",
          "name": "",
          "type": "bool"
        }
      ],
      "stateMutability": "view",
      "type": "function"
    },
    {
      "inputs": [],
      "name": "musd",
      "outputs": [
        {
          "internalType": "contract IERC20",
          "name": "",
          "type": "address"
        }
      ],
      "stateMutability": "view",
      "type": "function"
    },
    {
      "inputs": [],
      "name": "name",
      "outputs": [
        {
          "internalType": "string",
          "name": "",
          "type": "string"
        }
      ],
      "stateMutability": "view",
      "type": "function"
    },
    {
      "inputs": [
        {
          "internalType": "uint256",
          "name": "tokenId",
          "type": "uint256"
        }
      ],
      "name": "ownerOf",
      "outputs": [
        {
          "internalType": "address",
          "name": "",
          "type": "address"
        }
      ],
      "stateMutability": "view",
      "type": "function"
    },
    {
      "inputs": [
        {
          "internalType": "address",
          "name": "from",
          "type": "address"
        },
        {
          "internalType": "address",
          "name": "to",
          "type": "address"
        },
        {
          "internalType": "uint256",
          "name": "tokenId",
          "type": "uint256"
        }
      ],
      "name": "safeTransferFrom",
      "outputs": [],
      "stateMutability": "nonpayable",
      "type": "function"
    },
    {
      "inputs": [
        {
          "internalType": "address",
          "name": "from",
          "type": "address"
        },
        {
          "internalType": "address",
          "name": "to",
          "type": "address"
        },
        {
          "internalType": "uint256",
          "name": "tokenId",
          "type": "uint256"
        },
        {
          "internalType": "bytes",
          "name": "data",
          "type": "bytes"
        }
      ],
      "name": "safeTransferFrom",
      "outputs": [],
      "stateMutability": "nonpayable",
      "type": "function"
    },
    {
      "inputs": [
        {
          "internalType": "address",
          "name": "operator",
          "type": "address"
        },
        {
          "internalType": "bool",
          "name": "approved",
          "type": "bool"
        }
      ],
      "name": "setApprovalForAll",
      "outputs": [],
      "stateMutability": "nonpayable",
      "type": "function"
    },
    {
      "inputs": [
        {
          "internalType": "bytes4",
          "name": "interfaceId",
          "type": "bytes4"
        }
      ],
      "name": "supportsInterface",
      "outputs": [
        {
          "internalType": "bool",
          "name": "",
          "type": "bool"
        }
      ],
      "stateMutability": "view",
      "type": "function"
    },
    {
      "inputs": [],
      "name": "symbol",
      "outputs": [
        {
          "internalType": "string",
          "name": "",
          "type": "string"
        }
      ],
      "stateMutability": "view",
      "type": "function"
    },
    {
      "inputs": [
        {
          "internalType": "uint256",
          "name": "tokenId",
          "type": "uint256"
        }
      ],
      "name": "tokenURI",
      "outputs": [
        {
          "internalType": "string",
          "name": "",
          "type": "string"
        }
      ],
      "stateMutability": "view",
      "type": "function"
    },
    {
      "inputs": [],
      "name": "totalSupply",
      "outputs": [
        {
          "internalType": "uint256",
          "name": "",
          "type": "uint256"
        }
      ],
      "stateMutability": "view",
      "type": "function"
    },
    {
      "inputs": [
        {
          "internalType": "address",
          "name": "from",
          "type": "address"
        },
        {
          "internalType": "address",
          "name": "to",
          "type": "address"
        },
        {
          "internalType": "uint256",
          "name": "tokenId",
          "type": "uint256"
        }
      ],
      "name": "transferFrom",
      "outputs": [],
      "stateMutability": "nonpayable",
      "type": "function"
    }
  ],
  "bytecode": "0x60a060405234801562000010575f80fd5b5060405162001a7938038062001a798339810160408190526200003391620000ba565b6040518060400160405280601781526020017f4861636b6174686f6e20323032352046696e6973686572000000000000000000815250604051806040016040528060048152602001634846323560e01b815250815f908162000096919062000187565b506001620000a5828262000187565b5050506001600160a01b031660805262000253565b5f60208284031215620000cb575f80fd5b81516001600160a01b0381168114620000e2575f80fd5b9392505050565b634e487b7160e01b5f52604160045260245ffd5b600181811c908216806200011257607f821691505b6020821081036200013157634e487b7160e01b5f52602260045260245ffd5b50919050565b601f8211156200018257805f5260205f20601f840160051c810160208510156200015e5750805b601f840160051c820191505b818110156200017f575f81556001016200016a565b50505b505050565b81516001600160401b03811115620001a357620001a3620000e9565b620001bb81620001b48454620000fd565b8462000137565b602080601f831160018114620001f1575f8415620001d95750858301515b5f19600386901b1c1916600185901b1785556200024b565b5f85815260208120601f198616915b82811015620002215788860151825594840194600190910190840162000200565b50858210156200023f57878501515f19600388901b60f8161c191681555b505060018460011b0185555b505050505050565b6080516117f8620002815f395f8181610260015281816104eb015281816105d701526106cb01526117f85ff3fe608060405234801561000f575f80fd5b5060043610610111575f3560e01c806370a082311161009e578063b88d4fde1161006e578063b88d4fde14610235578063c87b56dd14610248578063cab666d01461025b578063d7bf81a314610282578063e985e9c514610291575f80fd5b806370a08231146101e557806373b2e80e146101f857806395d89b411461021a578063a22cb46514610222575f80fd5b806318160ddd116100e457806318160ddd1461019257806323b872dd146101a457806342842e0e146101b757806356e56942146101ca5780636352211e146101d2575f80fd5b806301ffc9a71461011557806306fdde031461013d578063081812fc14610152578063095ea7b31461017d575b5f80fd5b610128610123366004611185565b6102a4565b60405190151581526020015b60405180910390f35b6101456102f5565b60405161013491906111f4565b610165610160366004611206565b610384565b6040516001600160a01b039091168152602001610134565b61019061018b366004611238565b6103ab565b005b6006545b604051908152602001610134565b6101906101b2366004611260565b6103ba565b6101906101c5366004611260565b610448565b610196610467565b6101656101e0366004611206565b6107af565b6101966101f3366004611299565b6107b9565b610128610206366004611299565b60076020525f908152604090205460ff1681565b6101456107fe565b6101906102303660046112bf565b61080d565b610190610243366004611308565b610818565b610145610256366004611206565b610830565b6101657f000000000000000000000000000000000000000000000000000000000000000081565b61019667011c37937e08000081565b61012861029f3660046113dd565b6108fb565b5f6001600160e01b031982166380ac58cd60e01b14806102d457506001600160e01b03198216635b5e139f60e01b145b806102ef57506301ffc9a760e01b6001600160e01b03198316145b92915050565b60605f80546103039061140e565b80601f016020809104026020016040519081016040528092919081815260200182805461032f9061140e565b801561037a5780601f106103515761010080835404028352916020019161037a565b820191905f5260205f20905b81548152906001019060200180831161035d57829003601f168201915b5050505050905090565b5f61038e82610928565b505f828152600460205260409020546001600160a01b03166102ef565b6103b6828233610960565b5050565b6001600160a01b0382166103e857604051633250574960e11b81525f60048201526024015b60405180910390fd5b5f6103f483833361096d565b9050836001600160a01b0316816001600160a01b031614610442576040516364283d7b60e01b81526001600160a01b03808616600483015260248201849052821660448201526064016103df565b50505050565b61046283838360405180602001604052805f815250610818565b505050565b335f9081526007602052604081205460ff16156104c65760405162461bcd60e51b815260206004820152601960248201527f42616467654e46543a20616c726561647920636c61696d65640000000000000060448201526064016103df565b604051636eb1769f60e11b815233600482015230602482015267011c37937e080000907f00000000000000000000000000000000000000000000000000000000000000006001600160a01b03169063dd62ed3e90604401602060405180830381865afa158015610538573d5f803e3d5ffd5b505050506040513d601f19601f8201168201806040525081019061055c9190611446565b10156105b85760405162461bcd60e51b815260206004820152602560248201527f42616467654e46543a20696e73756666696369656e74204d55534420616c6c6f60448201526477616e636560d81b60648201526084016103df565b6040516370a0823160e01b815233600482015267011c37937e080000907f00000000000000000000000000000000000000000000000000000000000000006001600160a01b0316906370a0823190602401602060405180830381865afa158015610624573d5f803e3d5ffd5b505050506040513d601f19601f820116820180604052508101906106489190611446565b10156106a25760405162461bcd60e51b815260206004820152602360248201527f42616467654e46543a20696e73756666696369656e74204d5553442062616c616044820152626e636560e81b60648201526084016103df565b6040516323b872dd60e01b815233600482015230602482015267011c37937e08000060448201527f00000000000000000000000000000000000000000000000000000000000000006001600160a01b0316906323b872dd906064016020604051808303815f875af1158015610719573d5f803e3d5ffd5b505050506040513d601f19601f8201168201806040525081019061073d919061145d565b5060065f815461074c9061148c565b9182905550335f818152600760205260409020805460ff191660011790559091506107779082610a5f565b60405181815233907fc5e5b314108c1f776c2302351b8278910ddb812b122b2717b1bc973146145e9a9060200160405180910390a290565b5f6102ef82610928565b5f6001600160a01b0382166107e3576040516322718ad960e21b81525f60048201526024016103df565b506001600160a01b03165f9081526003602052604090205490565b6060600180546103039061140e565b6103b6338383610ac0565b6108238484846103ba565b6104423385858585610b87565b5f818152600260205260409020546060906001600160a01b03166108965760405162461bcd60e51b815260206004820152601b60248201527f42616467654e46543a206e6f6e6578697374656e7420746f6b656e000000000060448201526064016103df565b5f6108a083610caf565b6108a984610caf565b6040516020016108ba9291906114bf565b60405160208183030381529060405290506108d481610d3f565b6040516020016108e491906116de565b604051602081830303815290604052915050919050565b6001600160a01b039182165f90815260056020908152604080832093909416825291909152205460ff1690565b5f818152600260205260408120546001600160a01b0316806102ef57604051637e27328960e01b8152600481018490526024016103df565b6104628383836001610d4b565b5f828152600260205260408120546001600160a01b039081169083161561099957610999818486610e4f565b6001600160a01b038116156109d3576109b45f855f80610d4b565b6001600160a01b0381165f90815260036020526040902080545f190190555b6001600160a01b03851615610a01576001600160a01b0385165f908152600360205260409020805460010190555b5f8481526002602052604080822080546001600160a01b0319166001600160a01b0389811691821790925591518793918516917fddf252ad1be2c89b69c2b068fc378daa952ba7f163c4a11628f55a4df523b3ef91a4949350505050565b6001600160a01b038216610a8857604051633250574960e11b81525f60048201526024016103df565b5f610a9483835f61096d565b90506001600160a01b03811615610462576040516339e3563760e11b81525f60048201526024016103df565b6001600160a01b038316610ae95760405163a9fbf51f60e01b81525f60048201526024016103df565b6001600160a01b038216610b1b57604051630b61174360e31b81526001600160a01b03831660048201526024016103df565b6001600160a01b038381165f81815260056020908152604080832094871680845294825291829020805460ff191686151590811790915591519182527f17307eab39ab6107e8899845ad3d59bd9653f200f220920489ca2b5937696c31910160405180910390a3505050565b6001600160a01b0383163b15610ca857604051630a85bd0160e11b81526001600160a01b0384169063150b7a0290610bc9908890889087908790600401611722565b6020604051808303815f875af1925050508015610c03575060408051601f3d908101601f19168201909252610c009181019061175e565b60015b610c6a573d808015610c30576040519150601f19603f3d011682016040523d82523d5f602084013e610c35565b606091505b5080515f03610c6257604051633250574960e11b81526001600160a01b03851660048201526024016103df565b805160208201fd5b6001600160e01b03198116630a85bd0160e11b14610ca657604051633250574960e11b81526001600160a01b03851660048201526024016103df565b505b5050505050565b60605f610cbb83610eb3565b60010190505f8167ffffffffffffffff811115610cda57610cda6112f4565b6040519080825280601f01601f191660200182016040528015610d04576020820181803683370190505b5090508181016020015b5f19016f181899199a1a9b1b9c1cb0b131b232b360811b600a86061a8153600a8504945084610d0e57509392505050565b60606102ef825f610f8a565b8080610d5f57506001600160a01b03821615155b15610e20575f610d6e84610928565b90506001600160a01b03831615801590610d9a5750826001600160a01b0316816001600160a01b031614155b8015610dad5750610dab81846108fb565b155b15610dd65760405163a9fbf51f60e01b81526001600160a01b03841660048201526024016103df565b8115610e1e5783856001600160a01b0316826001600160a01b03167f8c5be1e5ebec7d5bd14f71427d1e84f3dd0314c0f7b2291e5b200ac8c7c3b92560405160405180910390a45b505b50505f90815260046020526040902080546001600160a01b0319166001600160a01b0392909216919091179055565b610e5a838383611109565b610462576001600160a01b038316610e8857604051637e27328960e01b8152600481018290526024016103df565b60405163177e802f60e01b81526001600160a01b0383166004820152602481018290526044016103df565b5f8072184f03e93ff9f4daa797ed6e38ed64bf6a1f0160401b8310610ef15772184f03e93ff9f4daa797ed6e38ed64bf6a1f0160401b830492506040015b6d04ee2d6d415b85acef81000000008310610f1d576d04ee2d6d415b85acef8100000000830492506020015b662386f26fc100008310610f3b57662386f26fc10000830492506010015b6305f5e1008310610f53576305f5e100830492506008015b6127108310610f6757612710830492506004015b60648310610f79576064830492506002015b600a83106102ef5760010192915050565b606082515f03610fa8575060408051602081019091525f81526102ef565b5f82610fd857600384516002610fbe9190611779565b610fc8919061178c565b610fd39060046117ab565b610ffd565b600384516004610fe891906117ab565b610ff3906002611779565b610ffd919061178c565b905060405191507f4142434445464748494a4b4c4d4e4f505152535455565758595a616263646566601f5261067083027f6768696a6b6c6d6e6f707172737475767778797a303132333435363738392b2f18603f526020820181810185865187016020810180515f82525b828410156110bb576003840193508351603f8160121c16518753600187019650603f81600c1c16518753600187019650603f8160061c16518753600187019650603f811651875350600186019550611068565b9052508590506110fc576003865106600181146110df57600281146110f2576110fa565b603d6001840353603d60028403536110fa565b603d60018403535b505b9183525060405292915050565b5f6001600160a01b038316158015906111655750826001600160a01b0316846001600160a01b03161480611142575061114284846108fb565b8061116557505f828152600460205260409020546001600160a01b038481169116145b949350505050565b6001600160e01b031981168114611182575f80fd5b50565b5f60208284031215611195575f80fd5b81356111a08161116d565b9392505050565b5f5b838110156111c15781810151838201526020016111a9565b50505f910152565b5f81518084526111e08160208601602086016111a7565b601f01601f19169290920160200192915050565b602081525f6111a060208301846111c9565b5f60208284031215611216575f80fd5b5035919050565b80356001600160a01b0381168114611233575f80fd5b919050565b5f8060408385031215611249575f80fd5b6112528361121d565b946020939093013593505050565b5f805f60608486031215611272575f80fd5b61127b8461121d565b92506112896020850161121d565b9150604084013590509250925092565b5f602082840312156112a9575f80fd5b6111a08261121d565b8015158114611182575f80fd5b5f80604083850312156112d0575f80fd5b6112d98361121d565b915060208301356112e9816112b2565b809150509250929050565b634e487b7160e01b5f52604160045260245ffd5b5f805f806080858703121561131b575f80fd5b6113248561121d565b93506113326020860161121d565b925060408501359150606085013567ffffffffffffffff80821115611355575f80fd5b818701915087601f830112611368575f80fd5b81358181111561137a5761137a6112f4565b604051601f8201601f19908116603f011681019083821181831017156113a2576113a26112f4565b816040528281528a60208487010111156113ba575f80fd5b826020860160208301375f60208483010152809550505050505092959194509250565b5f80604083850312156113ee575f80fd5b6113f78361121d565b91506114056020840161121d565b90509250929050565b600181811c9082168061142257607f821691505b60208210810361144057634e487b7160e01b5f52602260045260245ffd5b50919050565b5f60208284031215611456575f80fd5b5051919050565b5f6020828403121561146d575f80fd5b81516111a0816112b2565b634e487b7160e01b5f52601160045260245ffd5b5f6001820161149d5761149d611478565b5060010190565b5f81516114b58185602086016111a7565b9290920192915050565b7f7b226e616d65223a224861636b6174686f6e20323032352046696e6973686572815261202360f01b60208201525f83516115018160228501602088016111a7565b61088b60f21b6022918401918201527f226465736372697074696f6e223a224d696e746564206761736c6573736c792060248201527f76696120556e6976657273616c20476173204672616d65776f726b206f6e204260448201526d185cd94814d95c1bdb1a584b888b60921b60648201527f22696d616765223a22697066733a2f2f516d5547464261646765506c6163656860728201527f6f6c646572486173685265706c616365576974685265616c222c00000000000060928201526d2261747472696275746573223a5b60901b60ac8201526116d56116c76116b96116b361167f61163060ba87017f7b2274726169745f74797065223a2245646974696f6e222c2276616c7565223a81527108921858dad85d1a1bdb880c8c0c8d489f4b60721b602082015260320190565b7f7b2274726169745f74797065223a224d696e74656420566961222c2276616c7581527f65223a22556e6976657273616c20476173204672616d65776f726b227d2c00006020820152603e0190565b7f7b2274726169745f74797065223a22546f6b656e204944222c2276616c7565228152611d1160f11b602082015260220190565b876114a4565b61227d60f01b815260020190565b615d7d60f01b815260020190565b95945050505050565b7f646174613a6170706c69636174696f6e2f6a736f6e3b6261736536342c00000081525f825161171581601d8501602087016111a7565b91909101601d0192915050565b6001600160a01b03858116825284166020820152604081018390526080606082018190525f90611754908301846111c9565b9695505050505050565b5f6020828403121561176e575f80fd5b81516111a08161116d565b808201808211156102ef576102ef611478565b5f826117a657634e487b7160e01b5f52601260045260245ffd5b500490565b80820281158282048414176102ef576102ef61147856fea2646970667358221220adb50c2faaabfe7806b05bfb6a88a3e92d0d2e8d53b6eb8c74911f20ecffb51964736f6c63430008180033",
  "linkReferences": {},
  "deployedLinkReferences": {}
}