{
  "_format": "hh-sol-artifact-1",
  "contractName": "MockUSD",
  "sourceName": "contracts/MockUSD.sol",
  "abi": [
    {
      "inputs": [],
      "stateMutability": "nonpayable",
      "type": "constructor"
    },
    {
      "inputs": [
        {
          "internalType": "address",
          "name": "spender",
          "type": "address"
        },
        {
          "internalType": "uint256",
          "name": "allowance",
          "type": "uint256"
        },
        {
          "internalType": "uint256",
          "name": "needed",
          "type": "uint256"
        }
      ],
      "name": "ERC20InsufficientAllowance",
      "type": "error"
    },
    {
      "inputs": [
        {
          "internalType": "address",
          "name": "sender",
          "type": "address"
        },
        {
          "internalType": "uint256",
          "name": "balance",
          "type": "uint256"
        },
        {
          "internalType": "uint256",
          "name": "needed",
          "type": "uint256"
        }
      ],
      "name": "ERC20InsufficientBalance",
      "type": "error"
    },
    {
      "inputs": [
        {
          "internalType": "address",
          "name": "approver",
          "type": "address"
        }
      ],
      "name": "ERC20InvalidApprover",
      "type": "error"
    },
    {
      "inputs": [
        {
          "internalType": "address",
          "name": "receiver",
          "type": "address"
        }
      ],
      "name": "ERC20InvalidReceiver",
      "type": "error"
    },
    {
      "inputs": [
        {
          "internalType": "address",
          "name": "sender",
          "type": "address"
        }
      ],
      "name": "ERC20InvalidSender",
      "type": "error"
    },
    {
      "inputs": [
        {
          "internalType": "address",
          "name": "spender",
          "type": "address"
        }
      ],
      "name": "ERC20InvalidSpender",
      "type": "error"
    },
    {
      "anonymous": false,
      "inputs": [
        {
          "indexed": true,
          "internalType": "address",
          "name": "owner",
          "type": "address"
        },
        {
          "indexed": true,
          "internalType": "address",
          "name": "spender",
          "type": "address"
        },
        {
          "indexed": false,
          "internalType": "uint256",
          "name": "value",
          "type": "uint256"
        }
      ],
      "name": "Approval",
      "type": "event"
    },
    {
      "anonymous": false,
      "inputs": [
        {
          "indexed": true,
          "internalType": "address",
          "name": "from",
          "type": "address"
        },
        {
          "indexed": true,
          "internalType": "address",
          "name": "to",
          "type": "address"
        },
        {
          "indexed": false,
          "internalType": "uint256",
          "name": "value",
          "type": "uint256"
        }
      ],
      "name": "Transfer",
      "type": "event"
    },
    {
      "inputs": [],
      "name": "FAUCET_AMOUNT",
      "outputs": [
        {
          "internalType": "uint256",
          "name": "",
          "type": "uint256"
        }
      ],
      "stateMutability": "view",
      "type": "function"
    },
    {
      "inputs": [
        {
          "internalType": "address",
          "name": "owner",
          "type": "address"
        },
        {
          "internalType": "address",
          "name": "spender",
          "type": "address"
        }
      ],
      "name": "allowance",
      "outputs": [
        {
          "internalType": "uint256",
          "name": "",
          "type": "uint256"
        }
      ],
      "stateMutability": "view",
      "type": "function"
    },
    {
      "inputs": [
        {
          "internalType": "address",
          "name": "spender",
          "type": "address"
        },
        {
          "internalType": "uint256",
          "name": "value",
          "type": "uint256"
        }
      ],
      "name": "approve",
      "outputs": [
        {
          "internalType": "bool",
          "name": "",
          "type": "bool"
        }
      ],
      "stateMutability": "nonpayable",
      "type": "function"
    },
    {
      "inputs": [
        {
          "internalType": "address",
          "name": "account",
          "type": "address"
        }
      ],
      "name": "balanceOf",
      "outputs": [
        {
          "internalType": "uint256",
          "name": "",
          "type": "uint256"
        }
      ],
      "stateMutability": "view",
      "type": "function"
    },
    {
      "inputs": [],
      "name": "decimals",
      "outputs": [
        {
          "internalType": "uint8",
          "name": "",
          "type": "uint8"
        }
      ],
      "stateMutability": "view",
      "type": "function"
    },
    {
      "inputs": [],
      "name": "faucet",
      "outputs": [],
      "stateMutability": "nonpayable",
      "type": "function"
    },
    {
      "inputs": [
        {
          "internalType": "address",
          "name": "to",
          "type": "address"
        },
        {
          "internalType": "uint256",
          "name": "amount",
          "type": "uint256"
        }
      ],
      "name": "mint",
      "outputs": [],
      "stateMutability": "nonpayable",
      "type": "function"
    },
    {
      "inputs": [],
      "name": "name",
      "outputs": [
        {
          "internalType": "string",
          "name": "",
          "type": "string"
        }
      ],
      "stateMutability": "view",
      "type": "function"
    },
    {
      "inputs": [],
      "name": "symbol",
      "outputs": [
        {
          "internalType": "string",
          "name": "",
          "type": "string"
        }
      ],
      "stateMutability": "view",
      "type": "function"
    },
    {
      "inputs": [],
      "name": "totalSupply",
      "outputs": [
        {
          "internalType": "uint256",
          "name": "",
          "type": "uint256"
        }
      ],
      "stateMutability": "view",
      "type": "function"
    },
    {
      "inputs": [
        {
          "internalType": "address",
          "name": "to",
          "type": "address"
        },
        {
          "internalType": "uint256",
          "name": "value",
          "type": "uint256"
        }
      ],
      "name": "transfer",
      "outputs": [
        {
          "internalType": "bool",
          "name": "",
          "type": "bool"
        }
      ],
      "stateMutability": "nonpayable",
      "type": "function"
    },
    {
      "inputs": [
        {
          "internalType": "address",
          "name": "from",
          "type": "address"
        },
        {
          "internalType": "address",
          "name": "to",
          "type": "address"
        },
        {
          "internalType": "uint256",
          "name": "value",
          "type": "uint256"
        }
      ],
      "name": "transferFrom",
      "outputs": [
        {
          "internalType": "bool",
          "name": "",
          "type": "bool"
        }
      ],
      "stateMutability": "nonpayable",
      "type": "function"
    }
  ],
  "bytecode": "0x608060405234801561000f575f80fd5b5060405180604001604052806008815260200167135bd8dac81554d160c21b81525060405180604001604052806004815260200163135554d160e21b815250816003908161005d919061010a565b50600461006a828261010a565b5050506101c9565b634e487b7160e01b5f52604160045260245ffd5b600181811c9082168061009a57607f821691505b6020821081036100b857634e487b7160e01b5f52602260045260245ffd5b50919050565b601f82111561010557805f5260205f20601f840160051c810160208510156100e35750805b601f840160051c820191505b81811015610102575f81556001016100ef565b50505b505050565b81516001600160401b0381111561012357610123610072565b610137816101318454610086565b846100be565b602080601f83116001811461016a575f84156101535750858301515b5f19600386901b1c1916600185901b1785556101c1565b5f85815260208120601f198616915b8281101561019857888601518255948401946001909101908401610179565b50858210156101b557878501515f19600388901b60f8161c191681555b505060018460011b0185555b505050505050565b61079f806101d65f395ff3fe608060405234801561000f575f80fd5b50600436106100b1575f3560e01c806370a082311161006e57806370a082311461013f578063766976401461016757806395d89b4114610177578063a9059cbb1461017f578063dd62ed3e14610192578063de5f72fd146101ca575f80fd5b806306fdde03146100b5578063095ea7b3146100d357806318160ddd146100f657806323b872dd14610108578063313ce5671461011b57806340c10f191461012a575b5f80fd5b6100bd6101d2565b6040516100ca91906105f9565b60405180910390f35b6100e66100e1366004610660565b610262565b60405190151581526020016100ca565b6002545b6040519081526020016100ca565b6100e6610116366004610688565b61027b565b604051601281526020016100ca565b61013d610138366004610660565b61029e565b005b6100fa61014d3660046106c1565b6001600160a01b03165f9081526020819052604090205490565b6100fa68056bc75e2d6310000081565b6100bd6102ac565b6100e661018d366004610660565b6102bb565b6100fa6101a03660046106e1565b6001600160a01b039182165f90815260016020908152604080832093909416825291909152205490565b61013d6102c8565b6060600380546101e190610712565b80601f016020809104026020016040519081016040528092919081815260200182805461020d90610712565b80156102585780601f1061022f57610100808354040283529160200191610258565b820191905f5260205f20905b81548152906001019060200180831161023b57829003601f168201915b5050505050905090565b5f3361026f8185856102dd565b60019150505b92915050565b5f336102888582856102ef565b610293858585610370565b506001949350505050565b6102a882826103cd565b5050565b6060600480546101e190610712565b5f3361026f818585610370565b6102db3368056bc75e2d631000006103cd565b565b6102ea8383836001610401565b505050565b6001600160a01b038381165f908152600160209081526040808320938616835292905220545f1981101561036a578181101561035c57604051637dc7a0d960e11b81526001600160a01b038416600482015260248101829052604481018390526064015b60405180910390fd5b61036a84848484035f610401565b50505050565b6001600160a01b03831661039957604051634b637e8f60e11b81525f6004820152602401610353565b6001600160a01b0382166103c25760405163ec442f0560e01b81525f6004820152602401610353565b6102ea8383836104d3565b6001600160a01b0382166103f65760405163ec442f0560e01b81525f6004820152602401610353565b6102a85f83836104d3565b6001600160a01b03841661042a5760405163e602df0560e01b81525f6004820152602401610353565b6001600160a01b03831661045357604051634a1406b160e11b81525f6004820152602401610353565b6001600160a01b038085165f908152600160209081526040808320938716835292905220829055801561036a57826001600160a01b0316846001600160a01b03167f8c5be1e5ebec7d5bd14f71427d1e84f3dd0314c0f7b2291e5b200ac8c7c3b925846040516104c591815260200190565b60405180910390a350505050565b6001600160a01b0383166104fd578060025f8282546104f2919061074a565b9091555061056d9050565b6001600160a01b0383165f908152602081905260409020548181101561054f5760405163391434e360e21b81526001600160a01b03851660048201526024810182905260448101839052606401610353565b6001600160a01b0384165f9081526020819052604090209082900390555b6001600160a01b038216610589576002805482900390556105a7565b6001600160a01b0382165f9081526020819052604090208054820190555b816001600160a01b0316836001600160a01b03167fddf252ad1be2c89b69c2b068fc378daa952ba7f163c4a11628f55a4df523b3ef836040516105ec91815260200190565b60405180910390a3505050565b5f602080835283518060208501525f5b8181101561062557858101830151858201604001528201610609565b505f604082860101526040601f19601f8301168501019250505092915050565b80356001600160a01b038116811461065b575f80fd5b919050565b5f8060408385031215610671575f80fd5b61067a83610645565b946020939093013593505050565b5f805f6060848603121561069a575f80fd5b6106a384610645565b92506106b160208501610645565b9150604084013590509250925092565b5f602082840312156106d1575f80fd5b6106da82610645565b9392505050565b5f80604083850312156106f2575f80fd5b6106fb83610645565b915061070960208401610645565b90509250929050565b600181811c9082168061072657607f821691505b60208210810361074457634e487b7160e01b5f52602260045260245ffd5b50919050565b8082018082111561027557634e487b7160e01b5f52601160045260245ffdfea26469706673582212202aa5eb3da837c14d77f2e9e8daf3bc3ccf91e7b467a445101b54eaa1005a942564736f6c63430008180033",
  "linkReferences": {},
  "deployedLinkReferences": {}
}