{
  "_format": "hh-sol-artifact-1",
  "contractName": "MockToken",
  "sourceName": "contracts/MockToken.sol",
  "abi": [
    {
      "inputs": [
        {
          "internalType": "string",
          "name": "name",
          "type": "string"
        },
        {
          "internalType": "string",
          "name": "symbol",
          "type": "string"
        },
        {
          "internalType": "uint8",
          "name": "decimals_",
          "type": "uint8"
        },
        {
          "internalType": "address",
          "name": "relayer_",
          "type": "address"
        }
      ],
      "stateMutability": "nonpayable",
      "type": "constructor"
    },
    {
      "inputs": [],
      "name": "ECDSAInvalidSignature",
      "type": "error"
    },
    {
      "inputs": [
        {
          "internalType": "uint256",
          "name": "length",
          "type": "uint256"
        }
      ],
      "name": "ECDSAInvalidSignatureLength",
      "type": "error"
    },
    {
      "inputs": [
        {
          "internalType": "bytes32",
          "name": "s",
          "type": "bytes32"
        }
      ],
      "name": "ECDSAInvalidSignatureS",
      "type": "error"
    },
    {
      "inputs": [
        {
          "internalType": "address",
          "name": "spender",
          "type": "address"
        },
        {
          "internalType": "uint256",
          "name": "allowance",
          "type": "uint256"
        },
        {
          "internalType": "uint256",
          "name": "needed",
          "type": "uint256"
        }
      ],
      "name": "ERC20InsufficientAllowance",
      "type": "error"
    },
    {
      "inputs": [
        {
          "internalType": "address",
          "name": "sender",
          "type": "address"
        },
        {
          "internalType": "uint256",
          "name": "balance",
          "type": "uint256"
        },
        {
          "internalType": "uint256",
          "name": "needed",
          "type": "uint256"
        }
      ],
      "name": "ERC20InsufficientBalance",
      "type": "error"
    },
    {
      "inputs": [
        {
          "internalType": "address",
          "name": "approver",
          "type": "address"
        }
      ],
      "name": "ERC20InvalidApprover",
      "type": "error"
    },
    {
      "inputs": [
        {
          "internalType": "address",
          "name": "receiver",
          "type": "address"
        }
      ],
      "name": "ERC20InvalidReceiver",
      "type": "error"
    },
    {
      "inputs": [
        {
          "internalType": "address",
          "name": "sender",
          "type": "address"
        }
      ],
      "name": "ERC20InvalidSender",
      "type": "error"
    },
    {
      "inputs": [
        {
          "internalType": "address",
          "name": "spender",
          "type": "address"
        }
      ],
      "name": "ERC20InvalidSpender",
      "type": "error"
    },
    {
      "anonymous": false,
      "inputs": [
        {
          "indexed": true,
          "internalType": "address",
          "name": "owner",
          "type": "address"
        },
        {
          "indexed": true,
          "internalType": "address",
          "name": "spender",
          "type": "address"
        },
        {
          "indexed": false,
          "internalType": "uint256",
          "name": "value",
          "type": "uint256"
        }
      ],
      "name": "Approval",
      "type": "event"
    },
    {
      "anonymous": false,
      "inputs": [
        {
          "indexed": true,
          "internalType": "address",
          "name": "from",
          "type": "address"
        },
        {
          "indexed": true,
          "internalType": "address",
          "name": "to",
          "type": "address"
        },
        {
          "indexed": false,
          "internalType": "uint256",
          "name": "value",
          "type": "uint256"
        }
      ],
      "name": "Transfer",
      "type": "event"
    },
    {
      "inputs": [
        {
          "internalType": "address",
          "name": "owner",
          "type": "address"
        },
        {
          "internalType": "address",
          "name": "spender",
          "type": "address"
        }
      ],
      "name": "allowance",
      "outputs": [
        {
          "internalType": "uint256",
          "name": "",
          "type": "uint256"
        }
      ],
      "stateMutability": "view",
      "type": "function"
    },
    {
      "inputs": [
        {
          "internalType": "address",
          "name": "spender",
          "type": "address"
        },
        {
          "internalType": "uint256",
          "name": "value",
          "type": "uint256"
        }
      ],
      "name": "approve",
      "outputs": [
        {
          "internalType": "bool",
          "name": "",
          "type": "bool"
        }
      ],
      "stateMutability": "nonpayable",
      "type": "function"
    },
    {
      "inputs": [
        {
          "internalType": "address",
          "name": "account",
          "type": "address"
        }
      ],
      "name": "balanceOf",
      "outputs": [
        {
          "internalType": "uint256",
          "name": "",
          "type": "uint256"
        }
      ],
      "stateMutability": "view",
      "type": "function"
    },
    {
      "inputs": [],
      "name": "decimals",
      "outputs": [
        {
          "internalType": "uint8",
          "name": "",
          "type": "uint8"
        }
      ],
      "stateMutability": "view",
      "type": "function"
    },
    {
      "inputs": [
        {
          "internalType": "address",
          "name": "to",
          "type": "address"
        },
        {
          "internalType": "uint256",
          "name": "amount",
          "type": "uint256"
        }
      ],
      "name": "mint",
      "outputs": [],
      "stateMutability": "nonpayable",
      "type": "function"
    },
    {
      "inputs": [
        {
          "internalType": "address",
          "name": "to",
          "type": "address"
        },
        {
          "internalType": "uint256",
          "name": "amount",
          "type": "uint256"
        },
        {
          "internalType": "uint256",
          "name": "nonce",
          "type": "uint256"
        },
        {
          "internalType": "bytes",
          "name": "signature",
          "type": "bytes"
        }
      ],
      "name": "mintSecure",
      "outputs": [],
      "stateMutability": "nonpayable",
      "type": "function"
    },
    {
      "inputs": [],
      "name": "name",
      "outputs": [
        {
          "internalType": "string",
          "name": "",
          "type": "string"
        }
      ],
      "stateMutability": "view",
      "type": "function"
    },
    {
      "inputs": [],
      "name": "relayer",
      "outputs": [
        {
          "internalType": "address",
          "name": "",
          "type": "address"
        }
      ],
      "stateMutability": "view",
      "type": "function"
    },
    {
      "inputs": [],
      "name": "symbol",
      "outputs": [
        {
          "internalType": "string",
          "name": "",
          "type": "string"
        }
      ],
      "stateMutability": "view",
      "type": "function"
    },
    {
      "inputs": [],
      "name": "totalSupply",
      "outputs": [
        {
          "internalType": "uint256",
          "name": "",
          "type": "uint256"
        }
      ],
      "stateMutability": "view",
      "type": "function"
    },
    {
      "inputs": [
        {
          "internalType": "address",
          "name": "to",
          "type": "address"
        },
        {
          "internalType": "uint256",
          "name": "value",
          "type": "uint256"
        }
      ],
      "name": "transfer",
      "outputs": [
        {
          "internalType": "bool",
          "name": "",
          "type": "bool"
        }
      ],
      "stateMutability": "nonpayable",
      "type": "function"
    },
    {
      "inputs": [
        {
          "internalType": "address",
          "name": "from",
          "type": "address"
        },
        {
          "internalType": "address",
          "name": "to",
          "type": "address"
        },
        {
          "internalType": "uint256",
          "name": "value",
          "type": "uint256"
        }
      ],
      "name": "transferFrom",
      "outputs": [
        {
          "internalType": "bool",
          "name": "",
          "type": "bool"
        }
      ],
      "stateMutability": "nonpayable",
      "type": "function"
    },
    {
      "inputs": [
        {
          "internalType": "uint256",
          "name": "",
          "type": "uint256"
        }
      ],
      "name": "usedNonces",
      "outputs": [
        {
          "internalType": "bool",
          "name": "",
          "type": "bool"
        }
      ],
      "stateMutability": "view",
      "type": "function"
    }
  ],
  "bytecode": "0x608060405234801562000010575f80fd5b5060405162000ffb38038062000ffb83398101604081905262000033916200014e565b8383600362000043838262000275565b50600462000052828262000275565b5050600580546001600160a01b03909316610100026001600160a81b031990931660ff90941693909317919091179091555062000341915050565b634e487b7160e01b5f52604160045260245ffd5b5f82601f830112620000b1575f80fd5b81516001600160401b0380821115620000ce57620000ce6200008d565b604051601f8301601f19908116603f01168101908282118183101715620000f957620000f96200008d565b816040528381526020925086602085880101111562000116575f80fd5b5f91505b838210156200013957858201830151818301840152908201906200011a565b5f602085830101528094505050505092915050565b5f805f806080858703121562000162575f80fd5b84516001600160401b038082111562000179575f80fd5b6200018788838901620000a1565b955060208701519150808211156200019d575f80fd5b50620001ac87828801620000a1565b935050604085015160ff81168114620001c3575f80fd5b60608601519092506001600160a01b0381168114620001e0575f80fd5b939692955090935050565b600181811c908216806200020057607f821691505b6020821081036200021f57634e487b7160e01b5f52602260045260245ffd5b50919050565b601f8211156200027057805f5260205f20601f840160051c810160208510156200024c5750805b601f840160051c820191505b818110156200026d575f815560010162000258565b50505b505050565b81516001600160401b038111156200029157620002916200008d565b620002a981620002a28454620001eb565b8462000225565b602080601f831160018114620002df575f8415620002c75750858301515b5f19600386901b1c1916600185901b17855562000339565b5f85815260208120601f198616915b828110156200030f57888601518255948401946001909101908401620002ee565b50858210156200032d57878501515f19600388901b60f8161c191681555b505060018460011b0185555b505050505050565b610cac806200034f5f395ff3fe608060405234801561000f575f80fd5b50600436106100cb575f3560e01c80636717e41c1161008857806391444db81161006357806391444db8146101d957806395d89b41146101ec578063a9059cbb146101f4578063dd62ed3e14610207575f80fd5b80636717e41c1461015f57806370a08231146101815780638406c079146101a9575f80fd5b806306fdde03146100cf578063095ea7b3146100ed57806318160ddd1461011057806323b872dd14610122578063313ce5671461013557806340c10f191461014a575b5f80fd5b6100d761023f565b6040516100e49190610a4f565b60405180910390f35b6101006100fb366004610ab6565b6102cf565b60405190151581526020016100e4565b6002545b6040519081526020016100e4565b610100610130366004610ade565b6102e8565b60055460405160ff90911681526020016100e4565b61015d610158366004610ab6565b61030b565b005b61010061016d366004610b17565b60066020525f908152604090205460ff1681565b61011461018f366004610b2e565b6001600160a01b03165f9081526020819052604090205490565b6005546101c19061010090046001600160a01b031681565b6040516001600160a01b0390911681526020016100e4565b61015d6101e7366004610b4e565b61037d565b6100d761052b565b610100610202366004610ab6565b61053a565b610114610215366004610bda565b6001600160a01b039182165f90815260016020908152604080832093909416825291909152205490565b60606003805461024e90610c0b565b80601f016020809104026020016040519081016040528092919081815260200182805461027a90610c0b565b80156102c55780601f1061029c576101008083540402835291602001916102c5565b820191905f5260205f20905b8154815290600101906020018083116102a857829003601f168201915b5050505050905090565b5f336102dc818585610547565b60019150505b92915050565b5f336102f5858285610559565b6103008585856105d5565b506001949350505050565b60055461010090046001600160a01b0316331461036f5760405162461bcd60e51b815260206004820152601e60248201527f4f6e6c792072656c617965722063616e206d696e74206469726563746c79000060448201526064015b60405180910390fd5b6103798282610632565b5050565b5f8381526006602052604090205460ff16156103d05760405162461bcd60e51b8152602060048201526012602482015271139bdb98d948185b1c9958591e481d5cd95960721b6044820152606401610366565b6040516bffffffffffffffffffffffff19606087811b82166020840152603483018790526054830186905230901b1660748201525f906088016040516020818303038152906040528051906020012090505f610458827f19457468657265756d205369676e6564204d6573736167653a0a3332000000005f908152601c91909152603c902090565b90505f61049a8286868080601f0160208091040260200160405190810160405280939291908181526020018383808284375f9201919091525061066692505050565b6005549091506001600160a01b0380831661010090920416146104ff5760405162461bcd60e51b815260206004820152601960248201527f496e76616c69642072656c61796572207369676e6174757265000000000000006044820152606401610366565b5f868152600660205260409020805460ff191660011790556105218888610632565b5050505050505050565b60606004805461024e90610c0b565b5f336102dc8185856105d5565b610554838383600161068e565b505050565b6001600160a01b038381165f908152600160209081526040808320938616835292905220545f198110156105cf57818110156105c157604051637dc7a0d960e11b81526001600160a01b03841660048201526024810182905260448101839052606401610366565b6105cf84848484035f61068e565b50505050565b6001600160a01b0383166105fe57604051634b637e8f60e11b81525f6004820152602401610366565b6001600160a01b0382166106275760405163ec442f0560e01b81525f6004820152602401610366565b610554838383610760565b6001600160a01b03821661065b5760405163ec442f0560e01b81525f6004820152602401610366565b6103795f8383610760565b5f805f806106748686610886565b92509250925061068482826108cf565b5090949350505050565b6001600160a01b0384166106b75760405163e602df0560e01b81525f6004820152602401610366565b6001600160a01b0383166106e057604051634a1406b160e11b81525f6004820152602401610366565b6001600160a01b038085165f90815260016020908152604080832093871683529290522082905580156105cf57826001600160a01b0316846001600160a01b03167f8c5be1e5ebec7d5bd14f71427d1e84f3dd0314c0f7b2291e5b200ac8c7c3b9258460405161075291815260200190565b60405180910390a350505050565b6001600160a01b03831661078a578060025f82825461077f9190610c43565b909155506107fa9050565b6001600160a01b0383165f90815260208190526040902054818110156107dc5760405163391434e360e21b81526001600160a01b03851660048201526024810182905260448101839052606401610366565b6001600160a01b0384165f9081526020819052604090209082900390555b6001600160a01b03821661081657600280548290039055610834565b6001600160a01b0382165f9081526020819052604090208054820190555b816001600160a01b0316836001600160a01b03167fddf252ad1be2c89b69c2b068fc378daa952ba7f163c4a11628f55a4df523b3ef8360405161087991815260200190565b60405180910390a3505050565b5f805f83516041036108bd576020840151604085015160608601515f1a6108af88828585610987565b9550955095505050506108c8565b505081515f91506002905b9250925092565b5f8260038111156108e2576108e2610c62565b036108eb575050565b60018260038111156108ff576108ff610c62565b0361091d5760405163f645eedf60e01b815260040160405180910390fd5b600282600381111561093157610931610c62565b036109525760405163fce698f760e01b815260048101829052602401610366565b600382600381111561096657610966610c62565b03610379576040516335e2f38360e21b815260048101829052602401610366565b5f80807f7fffffffffffffffffffffffffffffff5d576e7357a4501ddfe92f46681b20a08411156109c057505f91506003905082610a45565b604080515f808252602082018084528a905260ff891692820192909252606081018790526080810186905260019060a0016020604051602081039080840390855afa158015610a11573d5f803e3d5ffd5b5050604051601f1901519150506001600160a01b038116610a3c57505f925060019150829050610a45565b92505f91508190505b9450945094915050565b5f602080835283518060208501525f5b81811015610a7b57858101830151858201604001528201610a5f565b505f604082860101526040601f19601f8301168501019250505092915050565b80356001600160a01b0381168114610ab1575f80fd5b919050565b5f8060408385031215610ac7575f80fd5b610ad083610a9b565b946020939093013593505050565b5f805f60608486031215610af0575f80fd5b610af984610a9b565b9250610b0760208501610a9b565b9150604084013590509250925092565b5f60208284031215610b27575f80fd5b5035919050565b5f60208284031215610b3e575f80fd5b610b4782610a9b565b9392505050565b5f805f805f60808688031215610b62575f80fd5b610b6b86610a9b565b94506020860135935060408601359250606086013567ffffffffffffffff80821115610b95575f80fd5b818801915088601f830112610ba8575f80fd5b813581811115610bb6575f80fd5b896020828501011115610bc7575f80fd5b9699959850939650602001949392505050565b5f8060408385031215610beb575f80fd5b610bf483610a9b565b9150610c0260208401610a9b565b90509250929050565b600181811c90821680610c1f57607f821691505b602082108103610c3d57634e487b7160e01b5f52602260045260245ffd5b50919050565b808201808211156102e257634e487b7160e01b5f52601160045260245ffd5b634e487b7160e01b5f52602160045260245ffdfea264697066735822122081fb0d1452878527c426db19a36338329c15f86b4089f40a52ce1a96fdf717d164736f6c63430008180033",
  "linkReferences": {},
  "deployedLinkReferences": {}
}